{
  "contractName": "Election",
  "abi": [
    {
      "constant": true,
      "inputs": [
        {
          "name": "",
          "type": "uint256"
        }
      ],
      "name": "Candidates",
      "outputs": [
        {
          "name": "id",
          "type": "uint256"
        },
        {
          "name": "name",
          "type": "string"
        },
        {
          "name": "voteCount",
          "type": "uint256"
        }
      ],
      "payable": false,
      "stateMutability": "view",
      "type": "function"
    },
    {
      "constant": true,
      "inputs": [
        {
          "name": "",
          "type": "address"
        }
      ],
      "name": "voters",
      "outputs": [
        {
          "name": "",
          "type": "bool"
        }
      ],
      "payable": false,
      "stateMutability": "view",
      "type": "function"
    },
    {
      "constant": true,
      "inputs": [],
      "name": "CandidatesCount",
      "outputs": [
        {
          "name": "",
          "type": "uint256"
        }
      ],
      "payable": false,
      "stateMutability": "view",
      "type": "function"
    },
    {
      "inputs": [],
      "payable": false,
      "stateMutability": "nonpayable",
      "type": "constructor"
    },
    {
      "anonymous": false,
      "inputs": [
        {
          "indexed": true,
          "name": "_candidateId",
          "type": "uint256"
        }
      ],
      "name": "votedEvent",
      "type": "event"
    },
    {
      "constant": false,
      "inputs": [
        {
          "name": "_name",
          "type": "string"
        }
      ],
      "name": "addCandidate",
      "outputs": [],
      "payable": false,
      "stateMutability": "nonpayable",
      "type": "function"
    },
    {
      "constant": false,
      "inputs": [
        {
          "name": "_candidateId",
          "type": "uint256"
        }
      ],
      "name": "vote",
      "outputs": [],
      "payable": false,
      "stateMutability": "nonpayable",
      "type": "function"
    }
  ],
  "bytecode": "0x608060405234801561001057600080fd5b5061005e6040805190810160405280600b81526020017f43616e64696461746520310000000000000000000000000000000000000000008152506100b0640100000000026401000000009004565b6100ab6040805190810160405280600b81526020017f43616e64696461746520320000000000000000000000000000000000000000008152506100b0640100000000026401000000009004565b6101d2565b6002600081548092919060010191905055506060604051908101604052806002548152602001828152602001600081525060016000600254815260200190815260200160002060008201518160000155602082015181600101908051906020019061011c92919061012d565b506040820151816002015590505050565b828054600181600116156101000203166002900490600052602060002090601f016020900481019282601f1061016e57805160ff191683800117855561019c565b8280016001018555821561019c579182015b8281111561019b578251825591602001919060010190610180565b5b5090506101a991906101ad565b5090565b6101cf91905b808211156101cb5760008160009055506001016101b3565b5090565b90565b61059a806101e16000396000f30060806040526004361061006d576000357c0100000000000000000000000000000000000000000000000000000000900463ffffffff1680630121b93f14610072578063290e92121461009f578063462e91ec14610153578063a3ec138d146101bc578063c0ce8ae314610217575b600080fd5b34801561007e57600080fd5b5061009d60048036038101908080359060200190929190505050610242565b005b3480156100ab57600080fd5b506100ca60048036038101908080359060200190929190505050610364565b6040518084815260200180602001838152602001828103825284818151815260200191508051906020019080838360005b838110156101165780820151818401526020810190506100fb565b50505050905090810190601f1680156101435780820380516001836020036101000a031916815260200191505b5094505050505060405180910390f35b34801561015f57600080fd5b506101ba600480360381019080803590602001908201803590602001908080601f0160208091040260200160405190810160405280939291908181526020018383808284378201915050505050509192919290505050610426565b005b3480156101c857600080fd5b506101fd600480360381019080803573ffffffffffffffffffffffffffffffffffffffff1690602001909291905050506104a3565b604051808215151515815260200191505060405180910390f35b34801561022357600080fd5b5061022c6104c3565b6040518082815260200191505060405180910390f35b6000803373ffffffffffffffffffffffffffffffffffffffff1673ffffffffffffffffffffffffffffffffffffffff16815260200190815260200160002060009054906101000a900460ff1615151561029a57600080fd5b6000811180156102ac57506002548111155b15156102b757600080fd5b60016000803373ffffffffffffffffffffffffffffffffffffffff1673ffffffffffffffffffffffffffffffffffffffff16815260200190815260200160002060006101000a81548160ff0219169083151502179055506001600082815260200190815260200160002060020160008154809291906001019190505550807ffff3c900d938d21d0990d786e819f29b8d05c1ef587b462b939609625b684b1660405160405180910390a250565b6001602052806000526040600020600091509050806000015490806001018054600181600116156101000203166002900480601f0160208091040260200160405190810160405280929190818152602001828054600181600116156101000203166002900480156104165780601f106103eb57610100808354040283529160200191610416565b820191906000526020600020905b8154815290600101906020018083116103f957829003601f168201915b5050505050908060020154905083565b600260008154809291906001019190505550606060405190810160405280600254815260200182815260200160008152506001600060025481526020019081526020016000206000820151816000015560208201518160010190805190602001906104929291906104c9565b506040820151816002015590505050565b60006020528060005260406000206000915054906101000a900460ff1681565b60025481565b828054600181600116156101000203166002900490600052602060002090601f016020900481019282601f1061050a57805160ff1916838001178555610538565b82800160010185558215610538579182015b8281111561053757825182559160200191906001019061051c565b5b5090506105459190610549565b5090565b61056b91905b8082111561056757600081600090555060010161054f565b5090565b905600a165627a7a72305820cee6be39225bc7c7063a16549ed0dd53af2054829f2649ef76085602705650600029",
  "source": "pragma solidity ^0.4.2;\n\ncontract Election{\n\n    struct Candidate{\n        uint id;\n        string name;\n        uint voteCount;\n    }\n\n    // Store accounts that vote\n    mapping(address => bool) public voters;\n\n    // Fetch candidate\n    mapping(uint => Candidate) public Candidates;\n\n    // Store candidate count\n    uint public CandidatesCount;\n    \n    constructor() public {\n        addCandidate(\"Candidate 1\");\n        addCandidate(\"Candidate 2\");\n    }\n\n    event votedEvent (\n        uint indexed _candidateId\n    );\n\n    function addCandidate(string _name) public{\n        CandidatesCount++;\n        Candidates[CandidatesCount] = Candidate(CandidatesCount,_name,0);\n    }\n\n    function vote(uint _candidateId) public{\n        // require that they haven't voted before\n        require(!voters[msg.sender]);\n\n        // require a valid candidate\n        require(_candidateId > 0 && _candidateId <= CandidatesCount);\n\n        voters[msg.sender] = true;\n        Candidates[_candidateId].voteCount++;\n\n        emit votedEvent(_candidateId);\n    }\n}",
  "sourcePath": "/home/vardan/Desktop/election/contracts/Election.sol",
  "compiler": {
    "name": "solc",
    "version": "0.4.24+commit.e67f0147.Emscripten.clang"
  },
  "schemaVersion": "2.0.1",
  "updatedAt": "2018-08-03T11:53:50.851Z"
}